:040000000DEF00F010
:0400080096EF8BF0F4
:06001800FF00C9EF89F0B2
:10FE4E0000BA1901000000060B01000000000000BE
:10FE5E000000000000004218010000000000000039
:10FE6E0000000000000000000000006E1801561A8D
:10FE7E0001000000000000121A0100000002C00084
:10FE8E00FF0002C000FF00024000000044697361E1
:10FE9E00626C6564000038206269747300000000B3
:10FEAE003136206269747300000053544154555327
:10FEBE000909203D203078253032782052585F4491
:10FECE00523D25782054585F44533D2578204D41AE
:10FEDE00585F52543D25782052585F505F4E4F3D2B
:10FEEE0025782054585F46554C4C3D25780D0A0018
:10FEFE003D3D3D3D3D3D3D3D3D3D3D3D3D3D3D3D24
:10FF0E00204E524620436F6E666967757261746942
:10FF1E006F6E203D3D3D3D3D3D3D3D3D3D3D3D3DBD
:10FF2E003D3D3D0A0052657472616E736D697409D0
:10FF3E00203D2025642075730A00435243204C65F2
:10FF4E006E67746809203D2025730A004461746150
:10FF5E00205261746509203D2025730A005041200E
:10FF6E00506F77657209203D2025730A0044594E63
:10FF7E0050442F464541545552450052585F414416
:10FF8E0044525F50302D310052585F414444525F0D
:10FF9E0050322D350052585F50575F50302D36007D
:10FFAE00454E5F5258414444520054585F414444B8
:10FFBE0052090052465F534554555000434F4E462A
:10FFCE00494709002030782530327800286E756C4C
:10FFDE006C2900454E5F4141090052465F43480976
:10FFEE0000257309203D00464748494A00203078D5
:02FFFE00000001
:020000040001F9
:100000002CC5D9F42DC5DAF4DEC4F6F4DDC4F7F45A
:10001000000EF86E0800F550250AD8A412EF80F003
:1000200014EF80F0B0EF81F02CC5D9F42DC5DAF4CF
:10003000DE2A000EDD22000E5B6E000E5A6E5AC5DF
:100040005CF50501CD69CE69366A47EF80F05C82C8
:100050002CC5D9F42DC5DAF4DE2A000EDD2247EFD7
:1000600080F0010E366E47EF80F02CC5D9F42DC517
:10007000DAF4DEC4F6F4DDC4F7F4000EF86E08001E
:10008000F550300AD8B427EF80F031EF80F03650C9
:10009000D8B44DEF80F04FEF80F035EF80F02CC5F5
:1000A00004F52DC505F52EC506F52FC507F5B8ECE9
:1000B00084F004C55AF505C55BF55BBE64EF80F0BE
:1000C00062EF80F069EF80F05C805A6C5B1ED8B004
:1000D0005B2A2CC5D9F42DC5DAF4DEC437F5DDC4AE
:1000E00038F537C5F6F438C5F7F4000EF86E080099
:1000F000F550640AD8B47FEF80F081EF80F091EF83
:1001000080F037C5F6F438C5F7F4000EF86E080035
:10011000F550690AD8A48FEF80F091EF80F0BFEF1F
:1001200080F02EC5D9F42FC5DAF4DFC430F5020E05
:10013000DE26DFC431F5000EDD2230C5D9F431C52D
:10014000DAF4DEC432F5DDC433F5010E3724306E47
:10015000000E3820316E2CC5D9F42DC5DAF430C527
:10016000DEF431C5DDF42AC51DF52BC51EF532C5FB
:100170001FF533C520F5C6EC82F0C6EF81F037C518
:10018000F6F438C5F7F4000EF86E0800F550780A5A
:10019000D8A4CDEF80F0CFEF80F00DEF81F02EC529
:1001A000D9F42FC5DAF4DFC430F5020EDE26DFC441
:1001B00031F5000EDD2230C5D9F431C5DAF4DEC4E4
:1001C00032F5DDC433F5010E3724306E000E3820D1
:1001D000316E2CC5D9F42DC5DAF430C5DEF431C545
:1001E000DDF4FFEF80F02AC51DF52BC51EF532C5E5
:1001F0001FF533C520F536EC84F0C6EF81F037C526
:10020000F6F438C5F7F4000EF86E0800F550780AD9
:10021000D8B4F3EF80F00DEF81F0366A2CC5D9F435
:100220002DC5DAF4DEC4F6F4DDC4F7F4000EF86E82
:100230000800F550730AD8A420EF81F022EF81F076
:100240002DEF81F02CC5D9F42DC5DAF4DE2A000E8D
:10025000DD22010E366E83EF81F02CC5D9F42DC559
:10026000DAF4DEC4F6F4DDC4F7F4000EF86E08002C
:10027000F5506C0AD8A43FEF81F041EF81F083EF95
:1002800081F02CC5D9F42DC5DAF4DEC430F5DDC417
:1002900031F5010E3026000E312230C5F6F431C59D
:1002A000F7F4000EF86E0800F5506C0AD8A45BEF66
:1002B00081F05DEF81F083EF81F02CC5D9F42DC57D
:1002C000DAF4DEC430F5DDC431F5020E3026000E5E
:1002D000312230C5F6F431C5F7F4000EF86E08008F
:1002E000F550730AD8A477EF81F079EF81F083EFAE
:1002F00081F0030E2CC5D9F42DC5DAF4DE26000EEC
:10030000DD2229EF81F03650D8B489EF81F08BEFF0
:1003100081F0A7EF81F02AC50DF52BC50EF52EC58E
:10032000D9F42FC5DAF4DFC430F5020EDE26DFC4BF
:1003300031F5000EDD2230C5D9F431C5DAF4DEC462
:100340000FF5DDC410F581EC83F0C6EF81F02CC50C
:10035000D9F42DC5DAF4DE2A000EDD22C6EF81F0D5
:100360002CC5D9F42DC5DAF4DEC4F6F4DDC4F7F4F7
:10037000000EF86E0800F550046E056A2AC506F5F1
:100380002BC507F51EEC85F0A7EF81F01200FE0EDD
:10039000416EFE0E426E5FEC8CF0E9EC8CF0E4EC0A
:1003A00088F058C551F559C552F5890E536EFF0EA8
:1003B000546E0A0E556E020E566EAEEC87F058C59E
:1003C00051F559C552F5960E536EFF0E546E0C0E34
:1003D000556E040E566EFCEC89F058C551F559C5A2
:1003E00052F5B80E536EFF0E546E100E556E010E80
:1003F000566EAEEC87F058C551F559C552F5A30EAF
:10040000536EFF0E546E110E556E060E566EFCECBA
:1004100089F058C551F559C552F5E10E536EFF0EDE
:10042000546E010E556E010E566EFCEC89F058C5E7
:1004300051F559C552F5AE0E536EFF0E546E020EB5
:10044000556E010E566EFCEC89F058C551F559C534
:1004500052F5E80E536EFF0E546E050E556E010EEA
:10046000566EFCEC89F058C551F559C552F5C10ED0
:10047000536EFF0E546E060E556E010E566EFCEC5A
:1004800089F058C551F559C552F5CA0E536EFF0E85
:10049000546E000E556E010E566EFCEC89F058C578
:1004A00051F559C552F57B0E536EFF0E546E1C0E5E
:1004B000556E020E566EFCEC89F05A0E416EFF0E20
:1004C000426E58C50EF559C50FF5A8EC8AF0050126
:1004D0009F6F9F51080D800EF324436E050EF4208C
:1004E000446E5FEC8CF0480E416EFF0E426E58C5B4
:1004F0000EF559C50FF595EC89F005019F6F9F51D9
:100500000A0D9A0EF324436EFE0EF420446E5FEC47
:100510008CF06B0E416EFF0E426E58C50EF559C53C
:100520000FF5B6EC8CF005019F6F9F51080D000E82
:10053000F324436E060EF420446E5FEC8CF058C535
:100540000EF559C50FF5C5EC8CF00501A56FA55149
:100550009F6FA06B010E9F27000EA023FA0E9F0332
:10056000F3C4A1F5F4C4A2F5A003F350A227A1C5DA
:10057000A3F5A2C5A4F5330E416EFF0E426EA3C5CE
:1005800043F5A4C544F55FEC8CF01200010E236E18
:1005900020BECDEF82F0D0EF82F0010ED1EF82F0DD
:1005A000000E266E5AC524F55BC525F52650D8B435
:1005B000DCEF82F0DEEF82F0F5EF82F02406D8A0C7
:1005C00025062650D8A4E7EF82F0E9EF82F0EFEF9E
:1005D00082F0000E226E2B0E216EF3EF82F0000EE1
:1005E000226E2D0E216E21C526F5000E286E1F0EDF
:1005F000276E0501EE6B2BEF83F02706D8A02806A7
:10060000CF0E2724D96E050E2820DA6E1FC504F5FB
:1006100020C505F5000E076E0A0E066EABEC86F0DF
:1006200004C50AF505C50BF52FEC8BF00A50300F09
:10063000DF6E236A2406D8A025061FC504F520C551
:1006400005F5000E076E0A0E066E4AEC86F004C52C
:100650001FF505C520F528BE36EF83F0285008E1C8
:100660002704D8A036EF83F038EF83F05DEF83F0F6
:100670001F502010D8A43FEF83F041EF83F0FDEF2F
:1006800082F02350D8A447EF83F049EF83F0FDEFC9
:1006900082F025BE54EF83F0255008E12404D8A051
:1006A00054EF83F056EF83F05DEF83F05CB25BEFC5
:1006B00083F05DEF83F0FDEF82F02650D8B463EF56
:1006C00083F065EF83F070EF83F02706D8A028064B
:1006D000CF0E2724D96E050E2820DA6E26C5DFF44A
:1006E0001DC514F51EC515F5CF0E2724166E050E73
:1006F0002820176E24C518F525C519F501EC88F0DA
:1007000012000FC517F510C518F517501810D8A40A
:100710008CEF83F08EEF83F092EF83F0DA0E176E9A
:10072000FF0E186E000E1A6E000E196E9AEF83F00F
:10073000194A1A2A19501724116E1A501820126ECD
:1007400011C5F6F412C5F7F4000EF86E250EF76425
:1007500003D00800F55005D0F6C4E9F4F7C4EAF474
:10076000EF500009D8A4B7EF83F0B9EF83F098EF0A
:1007700083F019C513F51AC514F55AC515F55BC5EF
:1007800016F55CB0C6EF83F0C8EF83F004EF84F099
:10079000D6EF83F0000E056E200E046E0DC506F533
:1007A0000EC507F51EEC85F0194A1A2A1550195C7A
:1007B0001A50800A116E1650800A1158D8A0E3EF23
:1007C00083F0E5EF83F0CAEF83F004EF84F017C500
:1007D000F6F418C5F7F4000EF86E250EF76403D092
:1007E0000800F55005D0F6C4E9F4F7C4EAF4EF5078
:1007F000116E1150046E056A0DC506F50EC507F59C
:100800001EEC85F0174A182A1306D8A014061328E0
:1008100006E11428D8A40FEF84F011EF84F0E7EF7D
:1008200083F05CA016EF84F018EF84F035EF84F0CD
:1008300026EF84F0000E056E200E046E0DC506F541
:100840000EC507F51EEC85F0194A1A2A1550195CD9
:100850001A50800A116E1650800A1158D8A033EF32
:1008600084F035EF84F01AEF84F01200010E246E4C
:100870005AC525F55BC526F5000E296E1F0E286E9C
:100880000501EE6B74EF84F02806D8A029061F50EE
:100890000F0B276E0A0E276050EF84F052EF84F0A2
:1008A00056EF84F0300E272658EF84F0570E272697
:1008B000CF0E2824D96E050E2920DA6E27C5DFF465
:1008C000246A2506D8A026061FC521F520C522F5D5
:1008D000040E236ED89022322132232E6AEF84F048
:1008E00021C51FF522C520F529BE80EF84F02950CF
:1008F00009E1020E285CD8A080EF84F082EF84F03A
:10090000A7EF84F01F502010D8A489EF84F08BEF5C
:1009100084F044EF84F02450D8A491EF84F093EF56
:1009200084F044EF84F026BE9EEF84F0265008E168
:100930002504D8A09EEF84F0A0EF84F0A7EF84F008
:100940005CB2A5EF84F0A7EF84F044EF84F01DC5FE
:1009500014F51EC515F5CF0E2824166E050E292098
:10096000176E25C518F526C519F501EC88F012009B
:10097000000E0C6E000E0B6E04C5D9F405C5DAF43A
:10098000DEC4F6F4DDC4F7F4000EF86E0800F5508E
:100990002A0AD8A4CEEF84F0D0EF84F003EF85F0DC
:1009A00004C5D9F405C5DAF4DE2A000EDD2206C539
:1009B000D9F407C5DAF4DFC408F5020EDE26DFC479
:1009C00009F5000EDD2208C5D9F409C5DAF4DEC444
:1009D0000BF5DDC40CF519EF85F00A0E0B02F3C41C
:1009E00008F5F4C409F50C02F35009260A5008244E
:1009F0000B6E000E09200C6E04C5D9F405C5DAF49F
:100A0000DE2A000EDD2204C5D9F405C5DAF4DEC401
:100A1000F6F4DDC4F7F4000EF86E0800F550D00FC0
:100A20000A6E090E0A6417EF85F019EF85F0EDEFF5
:100A300084F00BC504F50CC505F51200065007102F
:100A4000D8B425EF85F027EF85F030EF85F006501C
:100A50000710D8A42EEF85F030EF85F035EF85F044
:100A600004502EEC8DF082EF85F020EE09F0065058
:100A7000D9260750DA22DE50DE10D8B442EF85F0D6
:100A800044EF85F05FEF85F020EE09F00650D9269F
:100A90000750DA2210EE02F00650E1260750E2225B
:100AA000DE50E65CE650800A0C6EDE50800A0C5880
:100AB000D8B05DEF85F05FEF85F082EF85F020EE36
:100AC00002F00650D9260750DA22DEC408F5DDC44C
:100AD00009F506C5D9F407C5DAF4DEC40AF5DDC4A4
:100AE0000BF508500A24D96E09500B20DA6E04C5A4
:100AF000DFF420EE02F00650D9260750DA22DE2A73
:100B0000000EDD221200046E000184BF8AEF85F022
:100B10008CEF85F0E7EF85F00450050D8B0EF32484
:100B2000F66EFE0EF420F76EF86A000EF82208004A
:100B3000F5C484F00450050D010EF326000EF422D6
:100B40008B0EF324F66EFE0EF420F76EF86A000E9C
:100B5000F8220800F5C485F00450050D020EF326B6
:100B6000000EF4228B0EF324F66EFE0EF420F76EC8
:100B7000F86A000EF8220800F550FC0B866F04504E
:100B8000050D030EF326000EF4228B0EF324F66EF1
:100B9000FE0EF420F76EF86A000EF8220800F5C485
:100BA00089F00450050D040EF326000EF4228B0E7E
:100BB000F324F66EFE0EF420F76EF86A000EF822AB
:100BC0000800F5C48CF0C89C848FE7EF85F0120014
:100BD000CA0E056E050E066EF5EC8BF0CA0E0F6E92
:100BE000050E106E730E116E200E126E24EC89F03D
:100BF000CA0E0E6E050E0F6EF50E106EFF0E116E04
:100C000002EC87F00EC5C8F50FC5C9F50501C8513E
:100C1000C911D8B40EEF86F010EF86F018EF86F009
:100C2000000E056E010E046EAFEC8BF010EF86F037
:100C3000CA0E126E050E136E95EC8CF0CA0E586E2D
:100C4000050E596EC7EC81F021EE60F111EEA8F1AE
:100C50001F0EDBC4E3F4E806FCE2CA0E0F6E050EBD
:100C6000106EA80E116E050E126E9EEC88F0CA0E64
:100C70000F6E050E106E030E126EE80E116E58EC1C
:100C800087F0000E056E010E046EAFEC8BF02DEFB9
:100C900086F01200096A07BE52EF86F050EF86F028
:100CA00058EF86F0066C071ED8B0072A010E096EB1
:100CB00005BE5FEF86F05DEF86F065EF86F0046CB1
:100CC000051ED8B0052A010E091A000E0B6E000E83
:100CD0000A6E06500710D8B470EF86F072EF86F0F7
:100CE0009AEF86F0010E086E7AEF86F0D8900636FD
:100CF0000736082A07AE7FEF86F081EF86F076EFA1
:100D000086F0D8900A360B360650045C075005581A
:100D1000D8A08DEF86F08FEF86F094EF86F0065026
:100D2000045E0750055A0A80D89007320632082E12
:100D300081EF86F00950D8B4A0EF86F0A2EF86F0DC
:100D4000A6EF86F00A6C0B1ED8B00B2A0AC504F574
:100D50000BC505F51200096A05BEB3EF86F0B1EFC9
:100D600086F0B9EF86F0046C051ED8B0052A010E96
:100D7000096E07BEC0EF86F0BEEF86F0C4EF86F0C6
:100D8000066C071ED8B0072A06500710D8B4CBEF60
:100D900086F0CDEF86F0F1EF86F0010E086ED5EF0C
:100DA00086F0D89006360736082A07AEDAEF86F0C6
:100DB000DCEF86F0D1EF86F00650045C0750055852
:100DC000D8A0E5EF86F0E7EF86F0EBEF86F006506F
:100DD000045E0750055AD89007320632082EDCEF21
:100DE00086F00950D8B4F7EF86F0F9EF86F0FDEF02
:100DF00086F0046C051ED8B0052A04C504F505C5A7
:100E000005F51200000E1B6E000E1A6E10C50AF5D5
:100E100011C50BF5050E0C6E0A0E7DEC8BF010C59E
:100E20000AF511C50BF5050E0C6E100E7DEC8BF05E
:100E3000150E0A6E050E0B6E050E0C6E0A0EC7EC33
:100E40008BF0000E1D6E000E1C6E150E1C24D96E4C
:100E5000050E1D20DA6E1C501024136E1D5011203B
:100E6000146E13C5F6F414C5F7F4000EF86EDE50D8
:100E70000900F518D8B43FEF87F041EF87F043EF52
:100E800087F01A681B681C4A1D2A1DBE51EF87F0A7
:100E90001D5009E1050E1C5CD8A051EF87F053EFFF
:100EA00087F025EF87F01AC50EF51BC50FF5120068
:100EB0000FC5D9F410C5DAF4DF50D8B462EF87F06B
:100EC00064EF87F0ADEF87F0000E176E000E186E1E
:100ED000000E196E000E1A6E95EF87F0E9EC8CF09B
:100EE0001B6E1BAA76EF87F078EF87F080EF87F014
:100EF0000FC508F510C509F572EC8CF0ADEF87F061
:100F00001BA885EF87F087EF87F089EF87F078EFF0
:100F100087F0000E056E010E046EAFEC8BF0010E33
:100F20001726000E182219221A2211C513F512C510
:100F300014F5000E14BEFF0E156E166E1350175CDE
:100F4000145018581550195816501A58D8A0ABEF0D
:100F500087F0ADEF87F06EEF87F01200EF0E416E75
:100F6000FF0E426E53C543F554C544F55FEC8CF05B
:100F7000F1EF87F0980E0A6E050E0B6E050E0C6EE3
:100F80005550C7EC8BF0552AFB0E416EFF0E426E9A
:100F90005FEC8CF0000E05019E6F000E9D6FD50E6C
:100FA000416EFF0E426E980E9D25D96E050E9E2154
:100FB000DA6EDF50576E5750436E446A5FEC8CF028
:100FC00005019D4B9E2B9EBFEFEF87F09E5109E1DF
:100FD000050E9D5DD8A0EFEF87F0F1EF87F0CFEF22
:100FE00087F056065628D8A4F8EF87F0FAEF87F076
:100FF000BAEF87F0FB0E416EFE0E426E5FEC8CF096
:1010000012005CA006EF88F008EF88F012EF88F07D
:1010100016C50DF517C50EF514C50FF515C510F558
:10102000D1EC8AF019BE19EF88F017EF88F01DEFA8
:1010300088F0000E196E000E186E000E1C6E000E69
:101040001B6E2FEF88F0000E056E200E046E14C587
:1010500006F515C507F51EEC85F01B4A1C2A18502D
:101060001B5C1C50800A1A6E1950800A1A58D8A0AE
:101070003CEF88F03EEF88F023EF88F05CB043EF60
:1010800088F045EF88F04FEF88F016C50DF517C5CD
:101090000EF514C50FF515C510F5D1EC8AF0120048
:1010A000BE6ABF6AC06AC16AC26AC36A0401026BCF
:1010B0000A6B126B1A6B226B2A6BC668C768E90E43
:1010C000C86EC9680F0ECA6EF70ECB6E006908694C
:1010D000890E106F1869070E206FF70E286F016BCD
:1010E000096B116B196B216B296B03690B69136910
:1010F0001B69070E236F2B6904690C6914691C694D
:101100000F0E246F2C690201896B886B876B866BCD
:10111000150E6B6F320E156F160E6A6F310E176F4C
:101120000401056B066B076B0D6B0E6B0F6B156B7C
:10113000166B176B256B266B276B1200E9EC8CF096
:10114000B7EF88F0E9EC8CF0146E14C513F5300E8F
:101150001316D8B4AEEF88F0B0EF88F0B7EF88F090
:101160000FC5D9F410C5DAF4DF6AC3EF88F00FC5F4
:10117000D9F410C5DAF4DF50D8A4C1EF88F0C3EF7A
:1011800088F0A2EF88F0C0940FC508F510C509F5E6
:1011900084EC8CF0C092E10E21EC8CF0C082C09205
:1011A000A00E21EC8CF011C506F512C507F520EE56
:1011B00002F00F50D9261050DA22DF50086E2BECC7
:1011C0008AF0C082C0841200526EB80E416EFE0ECC
:1011D000426E52C543F5446A52BCF1EF88F0F4EF19
:1011E00088F0010EF5EF88F0000E456E466A52BA9F
:1011F000FCEF88F0FFEF88F0010E00EF89F0000EA1
:10120000476E486A52B807EF89F00AEF89F0010E7D
:101210000BEF89F0000E496E4A6A52C551F5D8901D
:101220005132070E511651504B6E4C6A52B01BEFA3
:1012300089F01EEF89F0010E1FEF89F0000E4D6E50
:101240004E6A5FEC8CF0120020EE01F00F50D926B0
:101250001050DA2211C5DFF420EE02F00F50D9262B
:101260001050DA2212C5DFF4E9EC8CF011C506F556
:10127000050ED1EC8CF020EE02F00F50D926105064
:10128000DA22DF50066E110ED1EC8CF020EE02F067
:101290000F50D9261050DA22DF50066E120ED1EC14
:1012A0008CF00FC508F510C509F572EC8CF00FC570
:1012B00006F510C507F525EC8DF01200020E10643E
:1012C00064EF89F066EF89F068EF89F094EF89F0B8
:1012D000110E0A6E050E0B6E010E0C6E060EC7EC9B
:1012E0008BF0020E1018D8A478EF89F07AEF89F00D
:1012F00087EF89F011502009116E1150F70B116E14
:1013000011C506F5060ED1EC8CF094EF89F0115062
:10131000D70B116E1038E842F80B1110116E11C581
:1013200006F5060ED1EC8CF01200106A120E0A6E51
:10133000050E0B6E010E0C6E000EC7EC8BF01250FA
:101340000C0B126E110E0A6E050E0B6E010E0C6E5A
:10135000010EC7EC8BF012B6B0EF89F0B2EF89F056
:10136000BAEF89F01150D8B4B8EF89F0BAEF89F02C
:10137000C7EF89F012A4BFEF89F0C1EF89F0C5EF84
:1013800089F0020E106EC7EF89F0010E106E10503A
:1013900012004C0EF66E190EF76E010EF86E01EE8D
:1013A00000F210EE20F00900F5C4EEF4E550E15033
:1013B000FAE1260EF66E160EF76E010EF86E01EECD
:1013C00060F110EE38F00900F5C4EEF4E550E1509C
:1013D000FAE101EECDF1220EEE6AE806FDE15C6A6B
:1013E0005B6A5A6A0401080E5D6F000E5E6F000EA4
:1013F0005F6F0001DFEF8BF0EF0E416EFF0E426E6C
:1014000053C543F554C544F55FEC8CF01BEF8AF0EF
:10141000570E0A6E050E0B6E010E0C6E5550C7EC82
:101420008BF0552AD20E416EFF0E426E57C543F522
:10143000446A5FEC8CF056065628D8A422EF8AF056
:1014400024EF8AF008EF8AF0FB0E416EFE0E426E2A
:101450005FEC8CF01200C092096A4BEF8AF006C56F
:10146000F6F407C5F7F4000EF86E250EF76403D006
:101470000800F55005D0F6C4E9F4F7C4EAF4EF50DB
:1014800021EC8CF0064A072A000E056E0A0E046E47
:1014900056EC8AF0092A0850095CD8A052EF8AF06D
:1014A00054EF8AF02FEF8AF0C082120060EF8AF0CA
:1014B000AA0EE82EFED700D0200E045E000E055ABC
:1014C000055007E1200E045CD8B069EF8AF06BEF9D
:1014D0008AF058EF8AF071EF8AF0050EE82EFED7F9
:1014E00000000406D8A00506042806E10528D8A4B3
:1014F0007CEF8AF07EEF8AF06DEF8AF012003BC538
:101500003FF53CC540F593EF8AF039C52AF53AC559
:101510002BF53F0E2C6E050E2D6E3DC52EF53EC5EE
:101520002FF500EC80F03FC5F6F440C5F7F4000E4F
:10153000F86E0800F5500009D8A4A1EF8AF0A3EFD7
:101540008AF085EF8AF0000E3A6E000E396E1200B6
:10155000110E0A6E050E0B6E010E0C6E060EC7EC18
:101560008BF01150280B116E200E1118D8A4BBEF70
:101570008AF0BDEF8AF0C1EF8AF0020E106ECFEF55
:101580008AF0080E1118D8A4C8EF8AF0CAEF8AF0C2
:10159000CEEF8AF0010E106ECFEF8AF0106A105075
:1015A0001200000E136E000E126EE2EF8AF011C5EB
:1015B00004F5056A0FC506F510C507F51EEC85F0A4
:1015C000124A132A12500D24D96E13500E20DA6ECF
:1015D000DF50116E1150D8A4F0EF8AF0F2EF8AF0CC
:1015E000D7EF8AF01200D69AAF90D680000E046E24
:1015F000000E056E000E066E1EEC8DF0B490D682C5
:10160000000E046E000E056E000E066E17EC8DF0D7
:10161000B890D684000E046E000E056E000E066EA5
:1016200010EC8DF01200636F776162756E67612058
:101630006D6665727373732E000000000000000079
:10164000000000000000314D627073000000324D58
:101650006270730000003235304B627073000BBE55
:1016600034EF8BF036EF8BF03CEF8BF00AC50AF5C8
:101670000BC50BF548EF8BF00AC50CF50BC50DF546
:101680000C1E0D1E0C4A0D2A0CC50AF50DC50BF5D6
:101690001200C092096A58EF8BF0FF0E21EC8CF01B
:1016A00006C5D9F407C5DAF4DF6E064A072A092A07
:1016B0000850095CD8A05FEF8BF061EF8BF04DEF25
:1016C0008BF0C0821200B19E0501EF51F011F111B3
:1016D000D8B46DEF8BF06FEF8BF07CEF8BF002D80E
:1016E0007CEF8BF00500FA6EEF51FD6EF051FE6E4F
:1016F000F151FF6EFA50120012000D6E0C50D8B46A
:1017000084EF8BF086EF8BF095EF8BF0C0920D504D
:101710001F0B200921EC8CF00AC506F50BC507F557
:101720000CC508F52BEC8AF0C0821200FAC402F551
:10173000FBC403F5A1AE9FEF8BF0A1EF8BF0AAEFF6
:101740008BF0B1AEA6EF8BF0A8EF8BF0AAEF8BF089
:1017500063EC8BF003C5FBF402C5FAF41100B9EF9A
:101760008BF0150E066EC60EE82EFED7062EFCD7A1
:1017700000D00406D8A00506042806E10528D8A450
:10178000C4EF8BF0C6EF8BF0B1EF8BF012000D6E53
:101790000C50D8B4CEEF8BF0D0EF8BF0DEEF8BF0A7
:1017A000C0920D501F0B21EC8CF00AC506F50BC53D
:1017B00007F50CC508F549EC8BF0C0821200F4EC7B
:1017C0008CF0D68E960E046E180E056E010E066E07
:1017D00009EC8DF02BEC8DF0000E0501A66F000ECC
:1017E000A76FE8EC85F00DEF00F0010E83EC85F0BB
:1017F00020EE01F00550D9260650DA22730EDF6E76
:1018000020EE02F00550D9260650DA22200EDF6EB7
:10181000C892C8941200110E0A6E050E0B6E010ECE
:101820000C6E040EC7EC8BF011500F0B116E1038BC
:10183000F00B1110116E11C506F5040ED1EC8CF0F1
:101840001200046E0001878586510309866F836B41
:10185000010E826F04C581F0B1A031EF8CF033EF3F
:101860008CF02CEF8CF080C005F505501200C20EF4
:101870000301196F186B7F0E1B6F5E0E046E1A0E3C
:10188000056E010E066E09EC8DF0B19EA18E890EDB
:1018900003011A6F1200C3B650EF8CF053EF8CF0B7
:1018A000010E54EF8CF0000EFF0A016E0146014656
:1018B0000146C3500118F70B0118C36E1200430E06
:1018C0004F6E050E506E000E396E000E3A6E41C519
:1018D0003BF542C53CF54F0E3D6E050E3E6E7FEC6E
:1018E0008AF0120008C5D9F409C5DAF4DF6AC09499
:1018F0002B0E066E000ED1EC8CF0C084300E066EFE
:10190000070ED1EC8CF0120008C5D9F409C5DAF441
:10191000010EDF6E2A0E066E000ED1EC8CF0300E3A
:10192000066E070ED1EC8CF0120012C50EF513C531
:101930000FF5000E106E5EEC89F012C50EF513C5A2
:101940000FF5640E106E0BEC8CF0120050415F4DE1
:10195000494E000050415F4C4F57000050415F48D6
:101960004947480050415F4D41580000100E0A6E33
:10197000050E0B6E010E0C6E060EC7EC8BF0D890A8
:101980001030030B106E10501200100E0A6E050E70
:101990000B6E010E0C6E040EC7EC8BF010380F0BA3
:1019A0001200076EC09207501F0B200921EC8CF02B
:1019B000065021EC8CF0C0821200A194A192A1905B
:1019C0000001846B040E856F866B896B8C6B878539
:1019D00012000E0E0A6E050E0B6E010E0C6E070E37
:1019E000C7EC8BF00E501200FFEC8CF050EC88F03E
:1019F000DDEC8CF037EC8CF0F3EC8AF01200600E2A
:101A00000001AD6FAF6BB36B080EB16FB06BAC6B19
:101A1000120004C5EFF505C5F0F506C5F1F5120095
:101A200004C5F2F505C5F3F506C5F4F5120004C5C5
:101A3000F5F505C5F6F506C5F7F5120004C5F8F588
:101A400005C5F9F506C5FAF51200C092E20E21ECC3
:101A50008CF0C082120003011A8F120012001200D3
:020000040020DA
:10000000FFFFFFFFFFFFFFFFFFFFFFFFFFFFFFFF00
:10001000FFFFFFFFFFFFFFFFFFFFFFFFFFFFFFFFF0
:10002000FFFFFFFFFFFFFFFFFFFFFFFFFFFFFFFFE0
:10003000FFFFFFFFFFFFFFFFFFFFFFFFFFFFFFFFD0
:020000040030CA
:080000008FFFF7FF9FFFFFFFD8
:01000900FFF7
:00000001FF
